:020000040800F2
:10000000B8060020690200084F0E0008B10D000874
:100010004D0E00085F0400080910000800000000F1
:10002000000000000000000000000000530E000867
:100030006104000800000000510E0008550E000881
:10004000830200088302000883020008830200087C
:10005000830200088302000883020008830200086C
:10006000830200088302000883020008830200085C
:10007000830200088302000883020008830200084C
:1000800083020008830200088302000800000000C9
:1000900000000000000000000000000083020008D3
:1000A000830200088302000883020008830200081C
:1000B00000000000000000000000000083020008B3
:1000C00083020008830200088302000883020008FC
:1000D0008302000883020008830200080000000079
:1000E00083020008830200080000000000000000F6
:1000F0000000000000000000000000008302000873
:100100000000000000000000830200080000000062
:100110000000000000000000830200080000000052
:10012000830200088302000883020008830200089B
:100130008302000800000000000000000000000032
:1001400000000000000000000000000000000000AF
:10015000830200088302000883020008830200086B
:10016000000000000000000000000000000000008F
:10017000000000000000000000000000000000007F
:100180008302000883020008000000000000000055
:1001900000000000830200080000000000000000D2
:1001A000000000000000000000000000000000004F
:1001B00000000000000000000000000083020008B2
:1001C000830200088302000800F002F800F03CF807
:1001D0000AA090E8000C82448344AAF10107DA45A2
:1001E00001D100F031F8AFF2090EBAE80F0013F0B8
:1001F000010F18BFFB1A43F001031847BC0E0000A3
:10020000DC0E0000103A24BF78C878C1FAD8520733
:1002100024BF30C830C144BF04680C607047000080
:100220000023002400250026103A28BF78C1FBD8FF
:10023000520728BF30C148BF0B6070471FB500F0A0
:1002400029FF1FBD10B510BD00F0CFF81146FFF714
:10025000F5FF00F0EBFE00F0EDF803B4FFF7F2FF5E
:1002600003BC00F0F5F80000094880470948004742
:10027000FEE7FEE7FEE7FEE7FEE7FEE7FEE7FEE756
:10028000FEE7FEE704480549054A064B70470000B3
:10029000ED0E0008C9010008B8000020B8060020D3
:1002A000B8020020B802002053EA020C00F0698076
:1002B0002DE9F04B4FF00006002B1FBFB3FA83F57A
:1002C00003FA05F424FA05F65E4012BF1643B2FAAB
:1002D00082F502FA05F4C5F120051EBF22FA05FCDD
:1002E00044EA0C04203556EA044C4FEA144418BF83
:1002F000641C4FF000084FF00009904271EB030CB2
:1003000039D3002919BFB1FA81F701FA07F6B0FA1B
:1003100080F700FA07F6C7F120071EBF20FA07FC96
:1003200046EA0C062037B6FBF4FCA7EB0507103FA6
:1003300007F01F0BCBF120060CFA0BFB2CFA06F68C
:1003400044BFB3460026202FA4BF5E464FF0000BEB
:100350005BEA060C08BF4FF0010B19EB0B09ABFB76
:10036000027C48EB0608C01B06FB02CC0BFB03CC4F
:1003700071EB0C01C1E70B46024641464846BDE819
:10038000F08B13B54FF000004FF00001AFF3008089
:10039000BDE81C4070474FF0000200B5134694467C
:1003A0009646203922BFA0E80C50A0E80C50B1F1CD
:1003B0002001BFF4F7AF090728BFA0E80C5048BFE1
:1003C0000CC05DF804EB890028BF40F8042B08BF7F
:1003D000704748BF20F8022B11F0804F18BF00F87B
:1003E000012B7047704770477047754600F02CF836
:1003F000AE4605006946534620F00700854618B012
:1004000020B5FFF73FFFBDE820404FF000064FF05A
:1004100000074FF000084FF0000B21F00701AC4639
:10042000ACE8C009ACE8C009ACE8C009ACE8C00958
:100430008D46704710B50446AFF300802046BDE8F6
:100440001040FFF70ABF000000487047540000202A
:1004500001491820ABBEFEE7260002007047FEE708
:100460007047000070B5044600F0EAF80546601CCD
:1004700002D004480078044400F0E2F8401BA04297
:10048000FAD370BD000000202DE9F84FDFF88CA1F1
:100490000022012403254FF00F090AF1040BAAF1F1
:1004A000040E00BF0B6804FA02F63340B34271D168
:1004B0000F7907F00307012F01D0022F16D18768AB
:1004C0004FEA420805FA08FC27EA0C07D1F80CC0ED
:1004D0000CFA08FC4CEA070CC0F808C04768B743A0
:1004E0000E79C6F3001696403E4346600E79F643F9
:1004F000B6070DD0C668570005FA07FC26EA0C06B9
:10050000D1F808C00CFA07FC4CEA060CC0F80CC085
:100510000E7906F00306022E10D1D60800EB8608ED
:10052000D8F8206057074FEAD76C09FA0CF7BE439A
:100530000F6907FA0CF73743C8F8207006684FEACE
:10054000420C05FA0CF7BE430F7907F0030707FAD0
:100550000CF7374307604E6816F4403F57D0304ED3
:10056000376847F480473760366822F0030706F49F
:10057000804600962B4E07EB060CDCF808689707C0
:100580004FEA177809FA08F7BE43274FB84202D15D
:1005900000270BE03BE0254FB84201D1012705E0E1
:1005A000234FB84201D1022700E0072707FA08F7D6
:1005B0003743CCF80878DAF800605746D1F804C021
:1005C0009E435FEACC2C00D51E433E60DBF8006002
:1005D0005F46D1F804C09E435FEA8C2C00D51E43D1
:1005E0003E60DEF800607746D1F804C09E435FEAC3
:1005F0008C3C00D51E433E60084F083F3E68D1F852
:1006000004C09E435FEACC3C00D51E433E60521CB2
:10061000102AFFF447AFBDE8F88F0000083C014006
:100620004438024000300140000002400004024013
:10063000000802400AB1816170470904FBE700002D
:10064000014880687047000000000020024881686F
:100650000278114481607047000000200B4810B5FB
:10066000016841F400710160016841F4806101603A
:10067000016841F480710160032000F063F80020FC
:1006800000F006F800F024F8002010BD003C024005
:1006900070B50D4D04464FF47A712878B1FBF0F037
:1006A0000A490968B1FBF0F000F008FB48B9102CCA
:1006B00007D200222146501E00F024F800206C6072
:1006C00070BD012070BD0000000000200C00002063
:1006D0000B4882B0016841F480410160006800F479
:1006E000804000900648001F016841F08051016081
:1006F000006800F080500090072002B000F022B89F
:1007000044380240F0B40E4B1B680C46C3F302237E
:10071000C3F10705042D00D90425191D072901D2AD
:10072000002300E0DB1E012606FA05F1491E2140E8
:1007300099409E40761E16403143F0BC00F065BCE7
:100740000CED00E0064900F0070208684FF6FF03D1
:10075000184040EA0220034A104308607047000036
:100760000CED00E00000FA052DE9F0470E4605000B
:1007700065D0DFF81481D8F80000F7B200F0070068
:10078000B04207D288F80070D8F8000000F00700E7
:10079000B04254D128683D4C810712D5400703D59B
:1007A000206840F4E05020602878000703D52068D6
:1007B00040F4604020602068A96820F0F000084301
:1007C00020602878C0072DD0304968680839012892
:1007D00012D0022813D0032811D0096889070029F4
:1007E0002DDA216821F0030101432160FFF728FF82
:1007F000814641F2883A0EE009688903EFE709680B
:100800008901ECE7FFF71CFFA0EB0901514502D974
:100810000320BDE8F0872068696800F00C00B0EBA9
:10082000810FEFD1D8F80010404601F00701B14226
:1008300007D90770006800F00700B04201D001201E
:10084000E7E72878400705D52068E96820F4E050FC
:10085000084320602878000706D52068296920F41D
:10086000604040EAC100206000F038F82168084A82
:10087000C1F30311515CC84006490860064800688E
:10088000FFF706FF0020C4E7003C024008380240A2
:100890009E1000080C0000200400002004480549B8
:1008A00000680968044AC1F38221515CC84070475E
:1008B0000C00002008380240AE100008044805492A
:1008C00000680968044AC1F34231515CC84070476E
:1008D0000C00002008380240AE100008154810B582
:1008E000006810F00C02144813D04110042A0FD0F5
:1008F000082A0ED10F4C241F2268236802F03F0201
:100900005B0207D52068C0F38810A0FB010106E058
:10091000084610BD2168C1F38811A1FB0001002326
:10092000FFF7C2FC2168C1F30141491C4900B0FB3B
:10093000F1F010BD083802400024F4002DE9F84F12
:1009400004006ED02078DFF86093C007A9F1040599
:100950004AD009F104000168C1F38101012908D0DE
:100960000068C0F3810002280AD1D9F800004002D3
:1009700006D52868800337D560680028E1D033E0C9
:100980006068B0F5803F10D0B0F5A02F286810D077
:1009900020F480302860286820F480202860606877
:1009A000A8B1FFF74DFE06460DE0286840F4803000
:1009B000F4E740F480202860F7E700BFFFF740FE2F
:1009C000801B642873D828688003F7D50CE0FFF7F4
:1009D00037FE064605E000BFFFF732FE801B6428A5
:1009E000F0D828688003F7D42078DFF8C082800729
:1009F0004FF0000A3ED5AC48001D016811F00C0F05
:100A000008D00068C0F3810002280BD1D9F800009B
:100A1000400207D42868800716D5E068012800D175
:100A200012E03CE1E068B8B10120C8F80000FFF72F
:100A300007FE064605E000BFFFF702FE801B022806
:100A4000C0D828688007F7D52868216920F0F80009
:100A500040EAC10028600DE0C8F800A0FFF7F0FDF3
:100A6000064604E0FFF7ECFD801B02281FD828682B
:100A70008007F7D42078000722D58B4E8C48616917
:100A8000703671B101210160FFF7DAFD074604E01D
:100A9000FFF7D6FDC01B022809D830688007F7D5BC
:100AA0000EE0C0F800A0FFF7CBFD074605E082E0AE
:100AB000FFF7C6FDC01B02287DD830688007F7D439
:100AC0002078400768D5DFF8E0B100270BF13C0B38
:100AD000DBF80000C0000BD4DBF8001041F08051BF
:100AE000CBF80010DBF80000012700F080500090E8
:100AF000704E3068C00510D4306840F480703060AB
:100B0000FFF79EFD009005E0FFF79AFD0099401A5F
:100B1000022850D83068C005F6D5634EA0686C3600
:100B200001280FD00528306810D020F00100306077
:100B3000306820F004003060A068B8B1FFF780FD95
:100B400000900FE0306840F00100F4E740F004004E
:100B50003060F7E7FFF774FD0099411A41F28830E1
:100B6000814268D830688007F4D50EE0FFF768FD51
:100B7000009007E0FFF764FD0099411A41F28830C8
:100B8000814258D830688007F4D42FB1DBF80010C8
:100B900021F08051CBF80010A069D8B34249091D5B
:100BA0000968C1F3810102294CD00228504607D0C0
:100BB000C8F8600000E03EE0FFF742FD04463DE07B
:100BC0004746C8F86000FFF73BFD064605E000BF5A
:100BD000FFF736FD801B02282DD828688001F7D446
:100BE000F4E907010843E168334A490802EB01418F
:100BF000A26841EA82110843217C40EA0160217D1C
:100C000040EA0171C9F8001001203866FFF718FDAD
:100C1000044606E045E000BFFFF712FD001B022876
:100C200009D828688001F7D53BE000BFFFF708FD31
:100C3000001B022802D90320BDE8F88F2868800134
:100C4000F4D42EE00128F7D0D9F80000E26900F4CE
:100C50008001914223D1226A00F03F0191421ED1CE
:100C600047F6C071626A0140B1EB821F17D1A26AD8
:100C70004FF0FF3300F4403103EB5202B1EB024F6F
:100C80000DD194F82C2000F07061B1EB026F06D109
:100C900094F8301000F0E040B0EB017F01D001206B
:100CA000CAE70020C8E700000438024000004742BD
:100CB000800E4742007000400000FFFF10B5401E4C
:100CC000B0F1807F01D3012010BD4FF0E0246061BE
:100CD0000F21601700F099F90020A0610720206122
:100CE000002010BD70B5040004D094F83D0000252C
:100CF00010B106E0012070BD84F83C50204600F0A1
:100D000023F8242084F83D002068C16821F40051B4
:100D1000C160204600F0F2F82068016921F490419A
:100D200001612068416921F02A0141612068C168A0
:100D300041F40051C1602564202084F83D0084F80E
:100D40003E00002070BD000010B586B0044614219E
:100D50006846FFF720FB13492068884220D11248DB
:100D60000021026842F400320260006800F40030A2
:100D700005900D481038026842F0010202600068D8
:100D800000F0010005900C2000900220CDE9010147
:100D9000032003900720049069460448FFF774FB82
:100DA00006B010BD00440040403802400000024040
:100DB000FEE7000030B587B014216846FFF7EBFA74
:100DC0001F480024016841F004010160016801F03E
:100DD00004010591016841F080010160016801F0A2
:100DE00080010591016841F001010160016801F095
:100DF00001010591016841F0020101600068114D97
:100E000000F002000590002220212846FFF712FC86
:100E10004FF4005000904FF40410CDE901046946EE
:100E20000948FFF731FB202000900120CDE90104A3
:100E3000694628460394FFF727FB07B030BD000042
:100E4000303802400000024000080240FEE7FEE7A2
:100E500070477047FFF7FABB30B593B0342168464E
:100E6000FFF799FA14210DA8FFF795FA1D48002401
:100E7000016841F080510160006800F080501290DC
:100E80001948016841F4404101600068022500F4FE
:100E90004040129001200390102000950695049088
:100EA000CDE907404FF4A870099004200A90CDE9DD
:100EB0000B056846FFF742FD08B172B6FEE70F204A
:100EC000CDE90D054FF48050CDE90F4002210DA86A
:100ED0001194FFF749FC002801D072B6FEE713B069
:100EE00030BD0000403802400070004002480168F8
:100EF00041F470010160704788ED00E070B5044670
:100F000000680169E26821F44051114301612169DF
:100F1000A068E26908436169114308432168CA680F
:100F200049F20C639A430243CA6020684169A2698E
:100F300021F440711143416131492068884202D057
:100F40003049884202D1FFF7B9FC01E0FFF7A6FC67
:100F5000E2690023192164253226B2F5004F626848
:100F600028D0A0FB0101930F9200FFF79DF90146E5
:100F7000B0FBF5F06FF01802504301EB800006EB78
:100F80000010B0FBF5F000F0F002B1FBF5F002EB61
:100F90000012B1FBF5F06FF01803584301EB80002D
:100FA00006EB0010B0FBF5F000F00F0021681044D4
:100FB000886070BDA0FB010192185B41FFF774F9D6
:100FC0000146B0FBF5F00201B1FBF5F06FF018033C
:100FD000584301EB800006EBC000B0FBF5F000F0D9
:100FE000F80002EB4002B1FBF5F0584301EB800042
:100FF00006EBC000B0FBF5F000F00700D6E70000FC
:101000000010014000140140FEE70907090E002806
:1010100004DB00F1E02080F80014704700F00F00BE
:1010200000F1E02080F8141D70470000FFF716FB68
:10103000FFF712FFFFF7BEFE144813490C220160B0
:101040004FF4E131416000218160C160C0E90412C8
:101050008161C161FFF746FE08B172B6FEE70C4D33
:101060004FF47A74012220212846FFF7E3FA204644
:10107000FFF7F8F9002220212846FFF7DBFA204687
:10108000FFF7F0F9EEE700000044004010000020F8
:10109000000002404FF04070E1EE100A704700007F
:1010A0000000000000000102030406070809000018
:1010B0000000010203040000D81000080000002016
:1010C0001000000004020008E810000810000020D2
:1010D000A806000020020008010000001000000027
:0810E000000000000024F400F0
:04000005080001C925
:00000001FF
